:020000040800F2
:1000000078040020C12700084501000847010008C6
:100010004B0100084F0100085301000800000000D8
:100020000000000000000000000000005701000870
:1000300059010008000000005B0100085D01000894
:10004000DB270008DB270008DB270008DB27000888
:10005000DB270008DB270008DB270008DB27000878
:10006000DB270008DB270008DB270008DB27000868
:10007000DB270008DB270008DB270008DB27000858
:10008000DB270008DB2700085F010008DB270008EA
:10009000DB270008DB270008DB270008DB27000838
:1000A000DB270008DB270008DB270008DB27000828
:1000B000DB270008DB270008DB270008DB27000818
:1000C000DB270008DB270008DB270008DB27000808
:1000D000DB270008DB27000863010008DB27000896
:1000E000DB270008DB270008DB270008DB270008E8
:1000F000DB270008DB270008DB2700086101000878
:10010000DB270008DB270008DB270008DB270008C7
:10011000DB270008DB270008DB270008DB270008B7
:10012000DB270008DB270008DB270008DB270008A7
:10013000DFF80CD002F0DCFF00480047070200089F
:1001400078040020704700BFFEE700BFFEE700BF55
:10015000FEE700BFFEE77047704770477047704783
:10016000704710B540F22551084802F0E0FA60B13E
:10017000064802F045FA06490860012002F0F3FD46
:1001800040F22551014802F006FB10BD004400403A
:100190000400002010B500F0CDFE4FF4803000F0D8
:1001A000EBFE00F02EFF0446012C21D1002000F0D0
:1001B00073FF002000F086FFA00200F078FFA0038C
:1001C00000F0A0FF4FF4E011200400F044FF0120F4
:1001D00000F04FFF00BF392000F0F1FE0028FAD0F8
:1001E000022000F049FF00BF00F051FF0828FBD1BA
:1001F00010BD10B5FFF7CEFF02F050FC02F0DCFCA2
:1002000002F05AFD10BD4FF4FA602C490860FFF768
:10021000F0FF02F09DFD00221146294802F0A6FDE4
:10022000284883684268016827A002F073FF2DE028
:1002300002F0CAFC04462146224802F09CFD054615
:1002400025480168284602F007FE23490860234933
:100250002148006802F0F6FE03D820481E490860D5
:1002600009E000211C48006802F0E2FE03D84FF0CC
:100270000000194908601848006802F048FD642031
:1002800000F04FF8214616A002F044FFD0E770B509
:1002900004464FF08441204602F06CFE05460F49AB
:1002A000284602F0CFFE01D20C4D05E00D4928464C
:1002B00002F0BEFE00D20B4D284670BD04000020A7
:1002C0000AD7A33C5C0000202025642C2025642C48
:1002D0002025640A00000000000000200000C84241
:1002E00025640A000000C8C2014601EBC1024FF0BC
:1002F000E0235A614FF000029A614FF001021A6147
:1003000000BF4FF0E022106910F0010F02D010F48E
:10031000803FF6D04FF000024FF0E0231A619A615F
:100320007047014642F2283201FB02F24FF0E0230F
:100330005A614FF000029A614FF001021A6100BF4A
:100340004FF0E022106910F0010F02D010F4803F4E
:10035000F6D04FF000024FF0E0231A619A61704727
:10036000384940EA0101384A1160704770B54FF0D2
:1003700000010B464FF00F02C4784CB3324C246896
:1003800004F4E064C4F5E0644FEA1421C1F104030D
:1003900022FA01F2447804FA03F1847804EA0204B0
:1003A00044EA01014FEA0111284C0678A15504786E
:1003B00004F01F054FF0010404FA05F405784FEA34
:1003C00065154FF0E02606EB8505C5F800410CE009
:1003D000047804F01F054FF0010404FA05F41C4DE5
:1003E00006784FEA661645F8264070BD194A01EABC
:1003F000020242EA0002184B1A60704731B1174AF4
:10040000126842EA0002154B1A6005E0134A1268AE
:1004100022EA0002114B1A607047042808D14FF0FD
:10042000E021096941F004014FF0E022116107E089
:100430004FF0E021096921F004014FF0E022116141
:10044000704700000000FA050CED00E000E400E059
:1004500080E100E080FFFF1F08ED00E010ED00E00C
:1004600010B50446FA48844208D10121401500F035
:1004700013FF0021601500F00FFF17E0F5488442DC
:1004800008D10121001500F007FF0021201500F020
:1004900003FF0BE0F048844208D10121C80300F0BB
:1004A000FBFE00214FF4004000F0F6FE10BD30B519
:1004B00002464FF0000003465068E84C00EA040092
:1004C0000D790C6844EA052444EA00005060906805
:1004D000E34C00EA0400D1E9025444EA05044D79F2
:1004E00044EA450444EA00009060D06A20F47000B9
:1004F0000C7CA4F10104E4B244EA030340EA035093
:10050000D06230BD4FF00001016001714171816026
:10051000C1604FF001010174704721B1826842F05F
:100520000102826003E0826822F00102826070476B
:1005300021B1826842F48072826003E0826822F412
:1005400080728260704710B54FF00003CBB222B1C9
:10055000446844EA0304446003E0446824EA030472
:10056000446010BD816841F0080181607047014618
:100570004FF000008A6812F0080F02D04FF001001F
:1005800001E04FF000007047816841F00401816094
:10059000704701464FF000008A6812F0040F02D045
:1005A0004FF0010001E04FF00000704721B1826878
:1005B00042F4A002826003E0826822F4A00282601A
:1005C000704701464FF000008A6812F4800F02D095
:1005D0004FF0010001E04FF00000704710B50A46EF
:1005E0004FF000010B46416821F46041A2F1010384
:1005F00041EA4331416010BD21B1426842F40062DA
:10060000426003E0426822F4006242607047F0B545
:1006100004460D464FF000000146092D14DDE06848
:10062000A5F10A0606EB46074FF0070606FA07F1A2
:1006300020EA0100A5F10A0606EB460603FA06F1D8
:1006400040EA0100E0600FE0206905EB45074FF04C
:10065000070606FA07F120EA010005EB450603FA52
:1006600006F140EA01002061072A14DA606BA2F16A
:10067000010606EB86074FF01F0606FA07F120EA8F
:100680000100A2F1010606EB860605FA06F140EA32
:10069000010060632AE00D2A14DA206BA2F107063C
:1006A00006EB86074FF01F0606FA07F120EA010065
:1006B000A2F1070606EB860605FA06F140EA0100FC
:1006C000206313E0E06AA2F10D0606EB86074FF007
:1006D0001F0606FA07F120EA0100A2F10D0606EB5B
:1006E000860605FA06F140EA0100E062F0BD21B19C
:1006F000826842F48012826003E0826822F48012F1
:10070000826070470146C86C80B2704750484C30D8
:100710000068704721B1426842F48062426003E0A1
:10072000426822F480624260704721B1426842F41C
:100730008052426003E0426822F480524260704777
:100740000A464FF00001816821F4E04141EA0201CC
:100750008160704721B1826842F40042826003E008
:10076000826822F400428260704721B1826842F4BC
:100770000212826003E0826822F4021282607047F3
:1007800001464FF000008A6812F4001F02D04FF0BB
:10079000010001E04FF000007047F0B50446154637
:1007A0004FF0000002460646092914DDE068A1F179
:1007B0000A0707EB470C4FF0070707FA0CF220EA8D
:1007C0000200A1F10A0707EB470703FA07F240EA24
:1007D0000200E0600FE0206901EB410C4FF00707D9
:1007E00007FA0CF220EA020001EB410703FA07F2D4
:1007F00040EA02002061A06BC0F3015605F1030737
:1008000006F1010CA7EB0C0707EB870C4FF01F0755
:1008100007FA0CF220EA020005F1030706F1010CC9
:10082000A7EB0C0707EB870701FA07F240EA020083
:10083000A063F0BD10B50A464FF000010B46816B76
:1008400021F44011A2F1010341EA0351816310BD7B
:100850000024014000280140003C0140FFFEF0FF61
:10086000FDF7F1FF10B54FF0000303460B441A608B
:1008700010BD02464FF00003134601F12800034467
:10088000186880B270470A464FF000014168284B53
:1008900001EA030141EA020141607047416282625C
:1008A00070470A464FF00001416821F01F0141EAFC
:1008B00002014160704730B11E49096841F40001EE
:1008C0001C4A116005E01B49096821F40001194A1E
:1008D0001160704702464FF0000013680B4202D0CF
:1008E0004FF0010001E04FF0000070476FEA010295
:1008F0000260704770B502464FF0000003460446A0
:100900004FEA21235568CEB205EA060415681D4258
:1009100003D014B14FF0010001E04FF0000070BDB2
:100920004FF000024FEA21226FEA02030360704792
:10093000FFFD3FFF0824014001684FF6FE7201EA07
:10094000020101604FF00001016041608160C160FF
:100950008849884206D18849496841F00F01864A92
:10096000516078E083491431884206D18249496850
:1009700041F0F001804A51606DE07E4928318842A3
:1009800006D17D49496841F470617B4A516062E05B
:1009900078493C31884206D17749496841F4704131
:1009A000754A516057E073495031884206D1724907
:1009B000496841F47021704A51604CE06D496431DE
:1009C000884206D16C49496841F470016A4A516015
:1009D00041E068497831884206D16749496841F069
:1009E0007061654A516036E06449884208D1A0F1DF
:1009F0000401096841F00F01A0F1040211602AE02E
:100A00005E491431884206D15D49096841F0F00120
:100A10005B4A11601FE059492831884206D1584984
:100A2000096841F47061564A116014E053493C3141
:100A3000884206D15249096841F47041504A116018
:100A400009E04E495031884205D14D49096841F4C9
:100A500070214B4A1160704710B54FF000020268D8
:100A600047F6F07322EA03020C6A8B6843EA040338
:100A70000C6943EA04034C6943EA04038C6943EAC2
:100A80000403CC6943EA04034C6A43EA04038C6A16
:100A900043EA040343EA02020260CB6843600B6846
:100AA00083604B68C36010BD4FF00001016041607E
:100AB0008160C160016141618161C1610162416226
:100AC0008162704721B1026842F00102026005E0D4
:100AD00002684FF6FE7302EA03020260704722B119
:100AE000036843EA0103036003E0036823EA0103A8
:100AF00003607047416070470146486880B27047A4
:100B000001464FF00000024611F0805F02D01D4BFD
:100B10001A6801E0184B1A680A4202D04FF001002F
:100B200001E04FF00000704710F0805F02D01449E0
:100B3000086001E010494860704701464FF000002E
:100B4000024611F0805F02D00E4B1A6801E00A4B9A
:100B50001A680A4202D04FF0010001E04FF0000095
:100B6000704710F0805F02D00549086001E002493B
:100B7000486070470800024000000240080402403C
:100B8000040402400004024010B50446DE488442DA
:100B900008D10121042000F07FFB0021042000F097
:100BA0007BFB46E0D948844208D10121082000F0AF
:100BB00073FB0021082000F06FFB3AE0D448844228
:100BC00008D10121102000F067FB0021102000F067
:100BD00063FB2EE0CF48844208D10121202000F0A1
:100BE0005BFB0021202000F057FB22E0CA48844232
:100BF00008D10121402000F04FFB0021402000F0EF
:100C00004BFB16E0C548844208D10121802000F04A
:100C100043FB0021802000F03FFB0AE0C0488442F3
:100C200007D10121801500F037FB0021A01500F04D
:100C300033FB10BD10B50121084600F02DFB00214B
:100C4000012000F029FB10BD2DE9F04102464FF0D4
:100C500000052E46284603460446074691F803C081
:100C60000CF00F0591F803C01CF0100F03D091F8A1
:100C700002C04CEA0505B1F800C01CF0FF0F35D0EA
:100C800014684FF000002EE04FF0010C0CFA00F356
:100C9000B1F800C00CEA03069E4222D14FEA80035D
:100CA0004FF00F0C0CFA03F724EA070405FA03FCD3
:100CB0004CEA040491F803C0BCF1280F06D14FF0B0
:100CC000010C0CFA00FCC2F814C00AE091F803C051
:100CD000BCF1480F05D14FF0010C0CFA00FCC2F832
:100CE00010C000F101000828CED31460B1F800C094
:100CF000BCF1FF0F38DD54684FF0000031E000F127
:100D0000080C4FF0010808FA0CF3B1F800C00CEA27
:100D100003069E4223D14FEA80034FF00F0C0CFADA
:100D200003F724EA070405FA03FC4CEA040491F8EB
:100D300003C0BCF1280F05D100F1080C08FA0CF82B
:100D4000C2F8148091F803C0BCF1480F07D100F13C
:100D5000080C4FF0010808FA0CF8C2F8108000F1F6
:100D600001000828CBD35460BDE8F0814FF6FF7135
:100D700001804FF0020181704FF00401C170704793
:100D800002464FF0000093680B4202D04FF0010082
:100D900001E04FF0000070470146886880B270475C
:100DA00002464FF00000D3680B4202D04FF0010022
:100DB00001E04FF0000070470146C86880B27047FC
:100DC00001617047416170470AB1016100E0416112
:100DD0007047C16070474FF4803242EA010282617D
:100DE0008161826182698269704702464FF000002A
:100DF0004C4B18684FF6807300EA030040EA02107B
:100E000040EA0100474B186070474749C861704786
:100E1000F0B50A464FF000031C4619460D4600F097
:100E20000046B6F1004F02D13E4EF16901E03D4E61
:100E30007168C0F3034583B200F44016B6F5401F55
:100E400008D121F07061374E766826F07066354F14
:100E50007E6017E000F48016B6F5801F08D14FF0D1
:100E6000030606FA05F421EA040141F0706109E085
:100E70004FEA50564FEA061603FA06F621EA060133
:100E800041F070613AB14FEA50564FEA061603FA44
:100E900006F646EA010100F00046B6F1004F02D125
:100EA000204EF16101E01F4E7160F0BD30B54FF092
:100EB00000024FEA81734FEA13744FF00F0303FAF5
:100EC00004F21A4B4FEAA10453F8243023EA020338
:100ED000164C4FEAA10544F8253023464FEAA104F9
:100EE00053F824304FEA81744FEA147400FA04F482
:100EF00043EA04030D4C4FEAA10544F8253030BD08
:100F00000B4908607047000000080140000C0140D8
:100F1000001001400014014000180140001C014075
:100F20000020014000000140000020420800014074
:100F3000DC002042F748006840F00100F5490860F5
:100F400008464068F44900EA0100F2494860084652
:100F50000068F24900EA0100EE49086008460068AE
:100F600020F4802008600846406820F4FE004860B5
:100F70004FF41F0088607047E649096821F480310A
:100F8000E44A11601146096821F480211160B0F52E
:100F9000803F03D0B0F5802F0ED106E0DD4909680F
:100FA00041F48031DB4A116007E0DA49096841F415
:100FB000A021D84A116000E000BF00BF704710B503
:100FC00001464FF00002134610464FEA6112012A13
:100FD00002D1D04C236806E0022A02D1CD4C236A0C
:100FE00001E0CC4C636A01F01F024FF0010404FAE7
:100FF00002F41C4202D04FF0010001E04FF000006B
:1010000010BD70B54FF000042546264600BF3120C4
:10101000FFF7D5FF064604F10104B4F5A06F01D037
:10102000002EF4D03120FFF7CAFF10B14FF00105B8
:1010300001E04FF00005284670BD01464FF000006A
:10104000B44A106820F0F80040EAC1001060704710
:10105000B3490860704702464FF00000AD4B586836
:1010600020F47C1042EA010343EA0000A94B5860D7
:101070007047AB490866704701464FF00000A54A2B
:10108000506820F0030040EA010050607047A1481A
:10109000406800F00C00704701464FF000009D4A88
:1010A000506820F0F00040EA0100506070470146AF
:1010B0004FF00000974A506820F4E06040EA0100D9
:1010C0005060704701464FF00000924A506820F48B
:1010D000605040EAC1005060704731B18D4A527A89
:1010E00042EA00028B4B5A7208E08A4A527A6FEA4F
:1010F0000003DBB202EA0302864B5A727047894949
:101100000860704701464FF00000824A506820F4A2
:10111000404040EA0100506070474FF00001824AB1
:1011200011707C4A82F82010012802D004280AD1CC
:1011300004E04FF001017C4A117005E04FF0050119
:10114000794A117000E000BF00BF7047774908601E
:1011500070477049096A41EA00016E4A116270479E
:1011600073490860704730B54FF000010A460C46DD
:101170000B46684D6D6805F00C0121B1042905D0BE
:10118000082927D105E06B4D056026E0694D056013
:1011900023E0604D6D6805F470125E4D6D6805F4D6
:1011A00080344FF0020505EB924224B9624D02FBF8
:1011B00005F505600DE0574D6D6815F4003F04D04E
:1011C0005D4D02FB05F5056003E05A4D02FB05F598
:1011D000056002E0574D056000BF00BF4D4D6D68D2
:1011E00005F0F0014FEA1111544D6B5C056825FACA
:1011F00003F54560474D6D6805F4E0614FEA112144
:101200004E4D6B5C456825FA03F58560414D6D6870
:1012100005F460514FEAD121484D6B5C456825FAD1
:1012200003F5C5603B4D6D6805F440414FEA9131CF
:10123000434D6B5CC568B5FBF3F5056130BD31B15D
:10124000344A526942EA0002324B5A6105E0314A9F
:10125000526922EA00022F4B5A61704731B12D4A80
:10126000926942EA00022B4B9A6105E0294A926991
:1012700022EA0002274B9A61704731B1254AD269B0
:1012800042EA0002234BDA6105E0224AD26922EAEF
:101290000002204BDA61704731B11E4AD26842EA3F
:1012A00000021C4BDA6005E01A4AD26822EA00020A
:1012B000184BDA60704731B1164A126942EA0002EF
:1012C000144B1A6105E0134A126922EA0002114B1D
:1012D0001A6170471B49086070471149C86470471C
:1012E0000C49C87170470B48406A40F0807009494A
:1012F0004862704701464FF00000064A92680A4271
:1013000002D04FF0010001E04FF0000070470149AA
:1013100088727047001002400000FFF8FFFFF6FEE1
:1013200000004242D8004242201002408004424263
:101330003C04424200127A0000093D0008000020EF
:10134000180000204004424210B50446FE48844282
:1013500008D10121C014FFF79FFF0021E014FFF71F
:101360009BFFC4E0B4F1804F08D101210846FFF78C
:10137000A2FF00210120FFF79EFFB8E0F34884425E
:1013800008D101210220FFF796FF00210220FFF77C
:1013900092FFACE0EE48844208D101210420FFF71F
:1013A0008AFF00210420FFF786FFA0E0E94884427D
:1013B00008D101210820FFF77EFF00210820FFF758
:1013C0007AFF94E0E448844208D101211020FFF71D
:1013D00072FF00211020FFF76EFF88E0DF48844293
:1013E00008D101212020FFF766FF00212020FFF710
:1013F00062FF7CE0DA48844208D101214014FFF703
:101400004BFF00216014FFF747FF70E0D54884428E
:1014100009D10121C804FFF73FFF00214FF400204C
:10142000FFF73AFF63E0D048844209D10121080563
:10143000FFF732FF00214FF48010FFF72DFF56E039
:10144000CA48844209D101214805FFF725FF002140
:101450004FF40010FFF720FF49E0C548844208D14F
:1014600001214020FFF727FF00214020FFF723FF45
:101470003DE0C048844208D101218020FFF71BFFD6
:1014800000218020FFF717FF31E0BB48844208D1DC
:1014900001218015FFF70FFF0021A015FFF70BFFBB
:1014A00025E0B648844209D101210804FFF7F4FE83
:1014B00000214FF48030FFF7EFFE18E0B04884427F
:1014C00009D101214804FFF7E7FE00214FF4003065
:1014D000FFF7E2FE0BE0AB48844208D1012188040B
:1014E000FFF7DAFE00214FF48020FFF7D5FE10BD94
:1014F0004FF000020288944B98420ED0984B9842CD
:101500000BD0B0F1804F08D0904B984205D0904B53
:10151000984202D08F4B984206D14FF68F7302EA61
:1015200003024B8843EA02028B4B984209D08B4B53
:10153000984206D04FF6FF4302EA0302CB8843EA03
:10154000020202808B8883850B8803857E4B98423C
:101550000BD0834B984208D0884B984205D0884BDB
:10156000984202D0874B984201D10B7A03864FF004
:1015700001038382704770B54FF000042246134682
:10158000058C4FF6FE7605EA06050584028C8388F5
:10159000048B4FF68F7504EA05044FF6FC7504EAD8
:1015A00005040D8845EA04044FF6FD7502EA0502BC
:1015B0000D8945EA02024D8845EA0202624DA842C1
:1015C0000BD0674DA84208D06C4DA84205D06C4D99
:1015D000A84202D06B4DA8421BD14FF6F77502EA24
:1015E00005024D8945EA02024FF6FB7502EA050243
:1015F0008D8845EA02024FF6FF6503EA05034FF6C0
:10160000FF5503EA05038D8945EA0303CD8945EAC1
:10161000030383800483CD888586028470BD70B502
:101620004FF0000422461346058C4FF6EF7605EA8C
:1016300006050584028C8388048B48F6FF7504EA4E
:1016400005044FF6FF4504EA05040D884FEA0565D9
:1016500044EA15444FF6DF7502EA05020D894FEAA8
:10166000055542EA15424D884FEA055542EA1542B2
:10167000354DA84202D03A4DA84223D14FF67F758E
:1016800002EA05024D894FEA055542EA15424FF636
:10169000BF7502EA05028D884FEA055542EA1542F8
:1016A0004FF6FF3503EA05034FF2FF7503EA050322
:1016B0008D894FEA854543EA1543CD894FEA854533
:1016C00043EA154383800483CD880587028470BD77
:1016D00070B54FF0000422461346058C4FF6FF66A6
:1016E00005EA06050584028C8388848B4FF68F7586
:1016F00004EA05044FF6FC7504EA05040D8845EA82
:1017000004044FF6FF5502EA05020D894FEA05650C
:1017100042EA15424D884FEA056542EA15420A4DF4
:10172000A84202D00E4DA84244D14FF2FF7502EA02
:1017300005024D894FEA056542EA15424FF6FF352D
:1017400002EA05028D881FE0002C014000040040E1
:1017500000080040000C0040001000400014004051
:1017600000340140004C0140005001400054014051
:1017700000180040001C00400020004000400140D4
:1017800000440140004801404FEA056542EA154225
:101790004EF6FF7503EA05034DF6FF7503EA0503F0
:1017A0008D894FEA055543EA1543CD894FEA055522
:1017B00043EA154383808483CD888587028470BD86
:1017C00070B54FF0000213461446058C4EF6FF76B6
:1017D00005EA06050584038C8488828B48F6FF752C
:1017E00002EA05024FF6FF4502EA05020D884FEABC
:1017F000056542EA15424DF6FF7503EA05030D89BA
:101800004FEA057543EA15434D884FEA057543EAEB
:101810001543FB4DA84202D0FA4DA84208D14BF621
:10182000FF7504EA05048D894FEA855544EA15449D
:1018300084808283CD88A0F84050038470BD828B61
:101840004FF2FF3302EA03028283828B4FEA016385
:1018500042EA134282837047F0B50C4615464FF0BA
:10186000000211460E46078C4EF6FF7C07EA0C0775
:101870000784828B018C4FEA04774FEA174640F6C3
:10188000FF4702EA07024FEA056742EA17424FEABA
:10189000037742EA1742DA4FB8420ED0D94FB84226
:1018A0000BD0B0F1804F08D0D74FB84205D0D74FFA
:1018B000B84202D0D64FB84208D14DF6FF7701EAC0
:1018C000070146F4805747EA010107E047F6FF5752
:1018D00001EA070144F4805747EA01018283018449
:1018E000F0BD828B4FF6F37302EA03028283828B90
:1018F00042EA010282837047F0B50C4615464FF06C
:10190000000211460E46078C4FF6FF6C07EA0C07E3
:101910000784828B018C4FEA04674FEA17464FF623
:101920000C7702EA07024FEA035745EA174747EAEE
:101930000202B34FB8420ED0B24FB8420BD0B0F152
:10194000804F08D0B04FB84205D0B04FB84202D057
:10195000AF4FB84208D14FF6FF5701EA070146F4EE
:10196000807747EA010107E04FF2FF5701EA0701DC
:1019700044F4807747EA010182830184F0BD028B41
:101980004FF2FF3302EA03020283028B4FEA016344
:1019900042EA134202837047F0B50C4615464FF0F9
:1019A000000211460E46078C4FF6EF7C07EA0C0743
:1019B0000784028B018C4FEA04574FEA174640F622
:1019C000FF4702EA07024FEA037742EA17424FEA6B
:1019D000056742EA17428A4FB8420ED0894FB84293
:1019E0000BD0B0F1804F08D0874FB84205D0874F59
:1019F000B84202D0864FB84208D14FF6DF7701EAED
:101A0000070146F0100747EA010107E04FF65F774C
:101A100001EA070144F0100747EA0101028301844B
:101A2000F0BD028B4FF6F37302EA03020283028BCE
:101A300042EA010202837047F0B50C4615464FF0AA
:101A400000021146068C4FF6FE7706EA070606846A
:101A5000028B018C4FF60C7602EA06024FEA03561F
:101A600045EA164646EA0202654EB0420ED0654E81
:101A7000B0420BD0B0F1804F08D0634EB04205D0D9
:101A8000624EB04202D0624EB04208D14FF6FD76AF
:101A900001EA060144F0010646EA010107E04FF6BB
:101AA000F57601EA060144F0010646EA01010283E7
:101AB0000184F0BD70B505460C46514885420ED0F4
:101AC000504885420BD0B5F1804F08D04E48854232
:101AD00005D04E48854202D04D48854200D100E0F5
:101AE00000BF208850B92389A28861882846FFF763
:101AF000A3FFE1882846FFF794FF25E0208804280B
:101B00000AD12389A28861882846FFF745FFE1882A
:101B10002846FFF734FF17E0208808280AD12389D8
:101B2000A28861882846FFF7E7FEE1882846FFF78C
:101B3000D8FE09E02389A28861882846FFF78CFE39
:101B4000E1882846FFF77BFE70BD2DE9F041054690
:101B50000C464FF000064FF00107608810B94FF0B7
:101B6000020601E04FF00006A088012802D14FF0E4
:101B7000020701E04FF001072088A0B92389A2885D
:101B800061882846FFF758FFE1882846FFF749FF9C
:101B900023893A4631462846FFF7FEFEE18828466B
:101BA000FFF7EDFE13E02389A28861882846FFF73E
:101BB000F3FEE1882846FFF7E2FE23893A463146E4
:101BC0002846FFF739FFE1882846FFF72AFFBDE8DE
:101BD000F0810A884B8842EA03028B8842EA0302BA
:101BE000CB8842EA03020B8942EA03024B8942EAAC
:101BF00003028B8942EA0302A0F8442070470000E8
:101C0000002C014000340140000400400008004066
:101C1000000C00404FF6FF7181804FF00001018001
:101C2000C1804180017270474FF000010180418006
:101C30008180C180018141818181C18170474FF0E4
:101C40000001018041804FF0010181804FF00001CF
:101C5000C180018170474FF0000101804180818087
:101C6000C180018141818181704721B1028842F0A8
:101C70000102028005E002884FF6FE7302EA0302C9
:101C80000280704731B1B0F8442042F40042A0F81D
:101C9000442005E0B0F84420C2F30E02A0F844202E
:101CA000704710B522B1838943EA0103838106E0BE
:101CB00083896FEA0104A4B203EA0403838110BD9F
:101CC0008182704741EA0203A0F84830704710B59E
:101CD00022B1838943EA0103838106E083896FEAA5
:101CE0000104A4B203EA0403838110BD01894FF605
:101CF000F87201EA0201018170470A464FF00001C3
:101D000001894FF68F7301EA030141EA0201018163
:101D1000704730B504460D4629462046FFF7EDFFD3
:101D2000208940F00700208130BD2DE9F0410446B4
:101D30000D4616461F46602D06D13B460122314610
:101D40002046FFF729FE05E03B46012231462046AA
:101D5000FFF772FE29462046FFF7CFFF208940F0AB
:101D600007002081BDE8F08130B50C464FF000013E
:101D70000189C9B24FEA036542EA154545EA0405FF
:101D800045EA0101018130BD2DE9F04105460E46CD
:101D9000174698464FF0000443463A4631462846D7
:101DA000FFF7E2FF2C894FF6F87004EA000444F0D4
:101DB00007044FF68F7004EA000444F070042C818D
:101DC000BDE8F081F0B504460D4616461F463B4679
:101DD000324629462046FFF7C7FF208940F480405D
:101DE0002081F0BD0185828270470A464FF00001D4
:101DF00001884FF68F7301EA030141EA0201018075
:101E00007047F0B50C4615461E464FF000010A46D5
:101E10000B460189028B038C4FF6F87701EA070124
:101E200041EA04014FF6FC4702EA070240F20117BB
:101E300042EA07024FF6DD7703EA07034FEA065747
:101E400045EA174747EA0303018102830384F0BD93
:101E50000A464FF00001018B4FF68F7301EA030130
:101E600041EA0201018370470A464FF00001018BED
:101E700048F6FF7301EA03014FEA026341EA1341A6
:101E8000018370470A464FF00001818B4FF68F7334
:101E900001EA030141EA0201818370470A464FF0DB
:101EA0000001818B48F6FF7301EA03014FEA0263E8
:101EB00041EA13418183704721B1028842F08002D8
:101EC000028005E002884FF67F7302EA0302028077
:101ED000704721B1828842F00402828005E0828846
:101EE0004FF6FB7302EA03028280704721B18288B9
:101EF00042F00802828005E082884FF6F77302EA1A
:101F000003028280704721B1828842F00102828000
:101F100005E082884FF6FE7302EA03028280704772
:101F20000A464FF00001018B4FF6F77301EA0301F7
:101F300041EA0201018370470A464FF00001018B1C
:101F40004FF2FF7301EA03014FEA026341EA1341D2
:101F5000018370470A464FF00001818B4FF6F773FB
:101F600001EA030141EA0201818370470A464FF00A
:101F70000001818B4FF2FF7301EA03014FEA026314
:101F800041EA1341818370470A464FF00001018BFB
:101F90004FF6FB7301EA030141EA02010183704736
:101FA0000A464FF00001018B4FF6FF3301EA0301AF
:101FB0004FEA026341EA1341018370470A464FF03A
:101FC0000001818B4FF6FB7301EA030141EA020134
:101FD000818370470A464FF00001818B4FF6FF3333
:101FE00001EA03014FEA026341EA1341818370472A
:101FF0000A464FF00001018B4FF67F7301EA03019F
:1020000041EA0201018370470A464FF00001018B4B
:10201000C1F30E014FEA026341EA134101837047A5
:102020000A464FF00001818B4FF67F7301EA0301EE
:1020300041EA0201818370470A464FF00001818B1B
:10204000C1F30E014FEA026341EA134181837047F5
:102050000A464FF00001018C4FF6FD7301EA0301BF
:1020600041EA0201018470470A464FF00001018CE9
:102070004FF6F77301EA030141EA02010184704758
:102080000A464FF00001018C4FF6DF7301EA0301AD
:102090004FEA025341EA1341018470470A464FF068
:1020A0000001018C4FF67F7301EA03014FEA0253EE
:1020B00041EA1341018470470A464FF00001018C48
:1020C0004FF6FF5301EA03014FEA026341EA13416D
:1020D000018470470A464FF00001018C4FF2FF73F4
:1020E00001EA03014FEA026341EA134101847047A8
:1020F0000A464FF00001018C4DF6FF7301EA03011F
:102100004FEA027341EA13410184704730B54FF042
:1021100000034FF0010404FA01F4A3B2048C6FEA47
:102120000305ADB204EA05040484048C02FA01F547
:10213000ADB244EA0504048430BD30B54FF000036D
:102140004FF0040404FA01F4A3B2048C6FEA03050F
:10215000ADB204EA05040484048C02FA01F5ADB2C0
:1021600044EA0504048430BD70B503464FF0000016
:102170000446184600F118004FF0010505FA01F574
:10218000ACB21D8C6FEA0406B6B205EA06051D84E2
:1021900009B108290AD100EB6100056825F0700536
:1021A0000560056845EA020505600EE0A1F1040539
:1021B000ADB200EB6500056825F4E04505600568F3
:1021C0004FEA026645EA1645056070BD21B10288F6
:1021D00042F00202028005E002884FF6FD7302EA37
:1021E00003020280704721B1028842F0040202809B
:1021F00005E002884FF6FB7302EA03020280704793
:1022000021B1828842F08002828005E082884FF608
:102210007F7302EA03028280704702884FF6F773E9
:1022200002EA03020280028842EA01020280704749
:1022300082884FF68F7302EA03028280828842EA24
:1022400001028280704702894FF6F87302EA0302A6
:102250000281028942EA01020281704702894FF637
:102260007F7302EA03020281028942EA01020281CB
:1022700070478184704781857047818670470187E8
:10228000704781877047A0F84010704702884FF66A
:10229000FF4302EA03020280028842EA010202804E
:1022A00070470146888E70470146088F7047014687
:1022B000888F70470146B1F8400070470146888C0E
:1022C00070470146088D704702464FF00000138AA0
:1022D0000B4202D04FF0010001E04FF000007047C8
:1022E0006FEA01020282704730B502464FF00000EB
:1022F00003460446158A05EA0103958905EA0104A7
:102300001BB114B14FF0010001E04FF0000030BDEF
:102310006FEA01020282704710B50446F848844211
:1023200009D101218803FEF7B7FF00214FF4804057
:10233000FEF7B2FF32E0F348844209D1012148049C
:10234000FEF7B9FF00214FF40030FEF7B4FF25E09F
:10235000ED48844209D101218804FEF7ACFF002139
:102360004FF48020FEF7A7FF18E0E848844209D127
:102370000121C804FEF79FFF00214FF40020FEF763
:102380009AFF0BE0E248844208D101210805FEF7DC
:1023900092FF00214FF48010FEF78DFF10BD2DE954
:1023A000F04786B005460E464FF00004A24600BF37
:1023B000A1462746B08900B100BF2F462C8A4CF6B3
:1023C000FF7004EA0004F08840EA04042C82AC891F
:1023D0004EF6F31004EA0004B088318940EA0100A7
:1023E000718940EA010040EA0404AC81AC8A4FF6EE
:1023F000FF4004EA0004B08940EA0404AC8201A86A
:10240000FEF7B1FEBE48874202D1DDF810A001E020
:10241000DDF80CA0A88910F4004F09D00AEBCA001F
:1024200000EB0A1031684FEA4101B0FBF1F808E017
:102430000AEBCA0000EB0A1031684FEA8101B0FBD9
:10244000F1F84FF06400B8FBF0F04FEA00144FEAE7
:1024500014104FF0640101FB1089A88910F4004F9B
:102460000AD04FF0320000EBC900B0FBF1F000F0F1
:10247000070040EA04040BE04FF0320000EB0910C3
:102480004FF06401B0FBF1F000F00F0040EA0404EB
:102490002C8106B0BDE8F0874FF4165101604FF073
:1024A00000018180C18001814FF00C0141814FF01A
:1024B00000018181704710B502464FF00000108A7C
:1024C0004FF2FF0300EA03000B884C8843EA040341
:1024D0008C8843EA0403CC8843EA040343EA0000FF
:1024E000108210BD4FF00001018041808180C180C9
:1024F000704721B1828942F40052828105E08289CD
:102500004DF6FF7302EA030282817047F0B503467D
:102510004FF00004264625462046A1F510676A3F85
:1025200000D100BF1846C1F3421401F01F064FF05E
:10253000010707FA06F5012C02D100F10C0006E0B4
:10254000022C02D100F1100001E000F1140022B1D0
:10255000076847EA0507076003E0076827EA0507F9
:102560000760F0BD10B522B1838A43EA010383827C
:1025700006E0838A6FEA0104A4B203EA04038382BB
:1025800010BD028A4FF6F07302EA03020282028A49
:1025900042EA01020282704782894FF2FF7302EA27
:1025A00003028281828942EA01028281704721B15D
:1025B000828942F00202828105E082894FF6FD7332
:1025C00002EA030282817047028A4FF6DF7302EA51
:1025D00003020282028A42EA01020282704721B1AA
:1025E000028A42F48042028205E0028A4BF6FF73BF
:1025F00002EA030202827047C1F308028280704738
:1026000001468888C0F308007047818941F00101C4
:1026100081817047028BD2B20283028B42EA01228F
:1026200002837047028B02F47F420283028B42EAEC
:1026300001020283704721B1828A42F02002828225
:1026400005E0828A4FF6DF7302EA03028282704756
:1026500021B1828A42F01002828205E0828A4FF61E
:10266000EF7302EA03028282704721B1828A42F04C
:102670000802828205E0828A4FF6F77302EA0302BB
:102680008282704721B1828942F40042828103E054
:102690008289C2F30E028281704721B1828A42F49C
:1026A0000062828205E0828A4FF2FF7302EA03022F
:1026B00082827047828A4FF6FB7302EA03028282AB
:1026C000828A42EA01028282704721B1828A42F004
:1026D0000202828205E0828A4FF6FD7302EA03025B
:1026E0008282704702464FF00000B1F5007F00D1B2
:1026F00000BF13880B420DD04FF001000CE000002A
:10270000003801400044004000480040004C0040B8
:10271000005000404FF00000704701F40072B2F525
:10272000007F00D100BF6FEA01020280704770B5E0
:1027300002464FF0000423461D461846A1F51066D8
:102740006A3E00D100BFC1F3421501F01F034FF0F4
:10275000010606FA03F3012D03D1968906EA030365
:1027600008E0022D03D1168A06EA030302E0968AE6
:1027700006EA03034FEA21244FF0010606FA04F4A7
:10278000168806EA04041BB114B14FF0010001E001
:102790004FF0000070BD10B54FF000021346A1F5D8
:1027A00010646A3C00D100BF4FEA21224FF00104BF
:1027B00004FA02F4A3B26FEA0304048010BD00001F
:1027C0000648804706480047FEE7FEE7FEE7FEE7CB
:1027D000FEE7FEE7FEE7FEE7FEE7FEE7B5280008B6
:1027E000310100084FF0000108466D4A126842F4BA
:1027F00080326B4B1A6000BF694A126802F40030E5
:1028000001F1010110B9B1F5A06FF5D1644A126868
:1028100012F4003F02D04FF0010001E04FF0000041
:10282000012842D15F4A126842F010025D4B1A60E3
:102830001A46126822F003021A601A46126842F021
:1028400002021A60564A5268554B5A601A4652683C
:102850005A601A46526842F480625A601A465268B8
:1028600022F47C125A601A46526842F4E8125A6006
:102870001A46126842F080721A6000BF484A126815
:1028800012F0007FFAD0464A526822F00302444B0D
:102890005A601A46526842F002025A6000BF404A2B
:1028A000526802F00C02082AF9D1704710B5FFF700
:1028B00099FF10BD10B53A48006840F00100384952
:1028C000086008464068384900EA01003449486019
:1028D00008460068354900EA0100314908600846A9
:1028E000006820F4802008600846406820F4FE005C
:1028F00048604FF41F008860FFF7D8FF4FF000607A
:102900002B49086010BD10B54FF000010846024683
:10291000234B5B6803F00C0121B1042906D0082980
:102920002CD107E0234B244C23602BE0214B224C7D
:10293000236027E01A4B5B6803F47010184B5B6848
:1029400003F480324FF0020303EB90402AB91B4B93
:1029500000FB03F3184C23600FE0114B5B6813F48A
:10296000003F05D0154B00FB03F3134C236004E03C
:10297000104B00FB03F3104C236003E00D4B0E4C97
:10298000236000BF00BF064B5B68C3F303130C4C0E
:10299000E15C094B1B6823FA01F3074C236010BD6F
:1029A00000100240002002400000FFF8FFFFF6FE8A
:1029B00008ED00E000127A001C00002000093D0034
:1029C0002000002070B504460D46E1B23748FFF7FD
:1029D00013FE00BF40213548FFF784FE0028F9D0E0
:1029E000204670BD1FB54FF4E13000904FF000005D
:1029F000ADF80400ADF80600ADF80800ADF80C0025
:102A00004FF00C00ADF80A0069462848FFF7C7FCF4
:102A1000012240F225512548FFF778FD0121234886
:102A2000FFF767FD1FBD08B501210420FEF716FC66
:102A300001214804FEF721FC4FF00400ADF800002E
:102A40004FF003008DF802004FF018008DF80300DE
:102A500069461748FEF7F8F84FF00800ADF8000097
:102A60004FF004008DF8030069461148FEF7ECF8BA
:102A700008BD08B54FF4E060FDF772FC4FF026008A
:102A80008DF800004FF000008DF802004FF00100BB
:102A90008DF803006846FDF769FC08BD10B5FFF727
:102AA000C2FFFFF7E6FFFFF79DFF10BD00440040A7
:102AB0000008014000B58BB04F48FDF73DFF4F487F
:102AC00000904F4801904FF0000002904FF001003D
:102AD00003904FF00000049005904FF48070069032
:102AE0004FF4806007904FF0200008904FF40050A2
:102AF00009904FF000000A9069463F48FDF7ACFF8F
:102B000001213D48FDF7DEFF0BB000BD00B585B0EB
:102B10004FF0000000904FF001008DF804008DF898
:102B200005004FF4602002904FF0000003904FF03A
:102B300001008DF8100069463248FDF7B8FC052306
:102B400001220F212F48FDF762FD01212D48FDF7DD
:102B5000EFFC01212B48FDF7E0FC2A48FDF702FDC0
:102B600000BF2848FDF703FD0028FAD12548FDF7EE
:102B70000BFD00BF2348FDF70CFD0028FAD1012111
:102B80002048FDF713FD05B000BD08B54FF020004B
:102B9000ADF800004FF000008DF8030069461A48B8
:102BA000FEF752F801214FF40470FEF757FB0121A4
:102BB0000846FEF744FB08BD10B5FFF7E6FFFFF738
:102BC00079FFFFF7A3FF10BD70B54FF00004254655
:102BD00009E00B48006804444FF00A00FDF784FB4D
:102BE00005F10100C5B2642DF3DB4FF06400B4FBC6
:102BF000F0F4204670BD0000080002404C24014063
:102C000030000020002401400010014008B54FF4BE
:102C10008070ADF800004FF018008DF803004FF001
:102C200003008DF8020069464048FEF70DF84FF4A6
:102C30000050ADF8000069463D48FEF705F8012157
:102C400040F60C00FEF70AFB08BD10B539480088B5
:102C5000A0F10100384988803848008808804FF08A
:102C60000000C880488008723548FEF741FC4FF0EC
:102C70007000344908804FF0010048804FF0040094
:102C8000888031480088C8804FF0020008814FF0EA
:102C9000000048814FF4807088814FF00000C881A7
:102CA0002748FEF768FC01212548FEF7DEFF0121D9
:102CB0002348FEF7E7FF10BD10B5FFF7A7FFFFF7AA
:102CC000C4FF10BD10B50446012C08D101211C48D9
:102CD000FEF7CBFF01211A48FEF7D4FF07E00021E1
:102CE0001748FEF7C2FF00211548FEF7CBFF10BDC5
:102CF00010B50446322C09D1012248211048FFF7B3
:102D000071F844F61F610E48FFF7B5FA10BD70B5B3
:102D100004460E49204600F0F7F8064600F073F925
:102D200085B229460648FFF7A8FA70BD00080140A1
:102D3000000C01403400002040000020360000203C
:102D4000002C01404A0000203800002000002041F3
:102D50003B484FF0000101604160816039480160EB
:102D6000416081607047384908707047354B186082
:102D700059609A6070472DE9FC5F04460D46334860
:102D80000068A0EB050020602068002801DD2068B5
:102D900001E020684042142805DA0020FFF7E3FF35
:102DA0000020BDE8FC9F0120FFF7DDFF26480078EA
:102DB00098B3D4E90001A0EB01074FF00202D4E977
:102DC000000102FB1100A16800EB0108404600F081
:102DD00011F982461B488168504600F095F88146FB
:102DE000206800F007F9009016484168009800F04C
:102DF0008BF88246384600F0FDF8009011480168D3
:102E0000009800F081F88346514600F025F84946C5
:102E1000019000F021F8064600BF0D49304600F051
:102E200011F901D20A4E05E00A49304600F000F9D6
:102E300000D2084E6068A060206860603046B0E74D
:102E40005C000020680000203A0000200400002000
:102E50000000C8420000C8C2F0B480EA0102D20FEC
:102E60004300B3EB410F02D20346084619464B001C
:102E700042D0C30DDDB2C1F3C7542C1B202C35DA70
:102E8000C1F3160141F4000502B16D42C4F1200600
:102E900005FA06F125412844B3EBD05F23D0C2B137
:102EA000012CA0EBC35009DCF0BC4FF0004202EA59
:102EB000C35200F50000DBB200F0EDB8400000F1B5
:102EC000807000EBC350A0F1807040EAD1704900DF
:102ED00009E0490841EAC071A0EBC35000F50000C9
:102EE000400800EBC350F0BC00F0CCB851420123C5
:102EF00003EB4101801AF6E7F0BC704781F0004116
:102F0000AAE780F00040A7E780EA010210B502F0CE
:102F10000042400026D04B0023D04FEA106101EB65
:102F20001361C0F35600C3F3560340F4000043F4AA
:102F30000003A0FB0330A1F17F014FEA00401C0415
:102F400001D000F1010050EA134001D44000491EB5
:102F5000C3B20C0604EBD010401C4008802B02D0FA
:102F600003E0002010BD20F00100002900DA00205D
:102F7000104310BD80EA010202F0004330B430F08B
:102F8000004221F0004015D0A0B1C0F3C755C2F3F4
:102F9000C754C2F31601C0F31600651B41F40001CB
:102FA00040F400007D35814201D36D1C00E04900F2
:102FB000002D02DA30BC002070474FF400020024DC
:102FC000814201D3091A144352084FEA4101F7D153
:102FD00051B1814202D14FF0004105E002D24FF0E1
:102FE000010101E06FF0010104EBC55030BC184451
:102FF00000F048B8C10F80EAE0700844CA07962381
:10300000002100F048B820F00040C10DC0F31600C8
:1030100040F400007F2901DA00207047962903DC84
:10302000C1F19601C840704796398840704700004A
:10303000002801DBC0F10040002901DBC1F10041A3
:1030400081427047002801DBC0F10040002901DB0C
:10305000C1F100418842704730B50B46014600205F
:103060002022012409E021FA02F59D4205D303FA4A
:1030700002F5491B04FA02F52844151EA2F10102CB
:10308000F1DC30BD0029A8BF7047401C490008BFD3
:1030900020F00100704710B4B0FA80FC00FA0CF088
:1030A00050EA010404BF10BC704749B1CCF12004C0
:1030B00021FA04F411FA0CF118BF0121214308434D
:1030C000A3EB0C01CB1D0106000A002BBEBF0020A4
:1030D00010BC704700EBC35010440029A4BF10BCC3
:1030E0007047401C490008BF20F0010010BC704729
:1030F000064C074D06E0E06840F0010394E8070045
:1031000098471034AC42F6D3FDF716F8A432000805
:10311000C43200080FB4054B10B503A9044A029845
:1031200000F018F810BC5DF814FB0000C529000879
:103130003C00002002E008C8121F08C1002AFAD192
:1031400070477047002001E001C1121F002AFBD127
:10315000704700002DE9FF4F89B004469B460025CB
:1031600096E0252833D10027641C4D4AB84601213A
:103170002378203B01FA03F0104202D00743641C7D
:10318000F6E720782E2819D114F8010F47F004072C
:103190002A280ED06FF02F022078A0F130010929E3
:1031A0000CD808EB880102EB410100EB0108641C1C
:1031B000F2E70A98641C50F8048B0A9020780028E3
:1031C0006AD0642808D0692806D075281FD05A46CE
:1031D0000B9990476D1C5AE00A994FF00A0901C9F2
:1031E0000A91002804DAC0F100004FF02D0102E03E
:1031F000390504D52B218DF82010012104E0F907B1
:1032000001D02021F7E700218A4608AE0CE00A9998
:103210004FF00A0901C90A91F5E74946FFF71CFF7B
:1032200001F1300106F8011D0028F6D1ADEB0600D2
:1032300000F12009780701D44FF00108C84502DDEC
:10324000A8EB090000E000208046002706E008A85F
:103250005A46C05D0B9990476D1C7F1C5745F6DBA5
:1032600004E030205A460B9990476D1CB8F10001DC
:10327000A8F10108F5DC05E016F8010B5A460B9998
:1032800090476D1CB9F10001A9F10109F4DC641C3F
:10329000207800287FF465AF0DB02846BDE8F08F98
:1032A00009280100C432000800000020400000008E
:1032B00034310008043300084000002038040000C6
:1032C0004431000800000000000000000000000081
:1032D00001020304010203040607080902040608A8
:1032E00000A24A04000000000000000001020304E4
:1032F0000607080900000000E8034800000000007D
:0433000000000000C9
:0400000508000131BD
:00000001FF
